:100000000C944C050C9474050C9474050C947405B4
:100010000C9474050C9474050C9474050C9474057C
:100020000C9474050C9474050C9474050C9474056C
:100030000C9474050C9474050C9474050C9474055C
:100040000C9491160C9474050C9401170C94DB1607
:100050000C9474050C9474050C9474050C9474053C
:100060000C9433170C94740500000000003E5B4FA5
:100070005B3E3E6B4F6B3E1C3E7C3E1C183C7E3C08
:10008000181C577D571C1C5E7F5E1C00183C180016
:10009000FFE7C3E7FF0018241800FFE7DBE7FF30A6
:1000A000483A060E2629792926407F050507407F14
:1000B00005253F5A3CE73C5A7F3E1C1C08081C1C87
:1000C0003E7F14227F22145F5F005F5F06097F017D
:1000D0007F006689956A606060606094A2FFA29468
:1000E00008047E040810207E201008082A1C080836
:1000F0001C2A08081E101010100C1E0C1E0C303884
:100100003E3830060E3E0E06000000000000005F84
:1001100000000007000700147F147F14242A7F2AA0
:100120001223130864623649562050000807030062
:10013000001C2241000041221C002A1C7F1C2A08AE
:10014000083E080800807030000808080808000011
:1001500060600020100804023E5149453E00427F85
:10016000400072494949462141494D331814127FD4
:100170001027454545393C4A494931412111090774
:100180003649494936464949291E000014000000F5
:1001900040340000000814224114141414140041C7
:1001A00022140802015909063E415D594E7C121184
:1001B000127C7F494949363E414141227F414141BC
:1001C0003E7F494949417F090909013E4141517337
:1001D0007F0808087F00417F41002040413F017FA8
:1001E000081422417F404040407F021C027F7F0470
:1001F00008107F3E4141413E7F090909063E4151B9
:10020000215E7F09192946264949493203017F01A8
:10021000033F4040403F1F2040201F3F4038403FA9
:10022000631408146303047804036159494D4300BF
:100230007F4141410204081020004141417F0402F6
:10024000010204404040404000030708002054548D
:1002500078407F284444383844444428384444286B
:100260007F385454541800087E090218A4A49C78BE
:100270007F0804047800447D40002040403D007F1A
:100280001028440000417F40007C047804787C08FA
:100290000404783844444438FC18242418182424CE
:1002A00018FC7C08040408485454542404043F44B3
:1002B000243C4040207C1C2040201C3C4030403CE2
:1002C00044281028444C9090907C4464544C440042
:1002D00008364100000077000000413608000201A6
:1002E0000204023C2623263C1EA1A161123A404092
:1002F000207A38545455592155557941225454780F
:1003000042215554784020545579400C1E527212A7
:100310003955555559395454545939555454580030
:1003200000457C410002457D420001457C407D1234
:1003300011127DF0282528F07C5455450020545496
:100340007C547C0A097F4932494949323A44444441
:100350003A324A4848303A4141217A3A424020787C
:10036000009DA0A07D3D4242423D3D4040403D3C7D
:1003700024FF2424487E4943662B2FFC2F2BFF09A2
:1003800029F620C0887E0903205454794100004496
:100390007D413048484A32384040227A007A0A0A81
:1003A000727D0D19317D2629292F282629292926F4
:1003B00030484D4020380808080808080808382F39
:1003C00010C8ACBA2F102834FA00007B00000814C3
:1003D0002A142222142A14085500550055AA55AA99
:1003E00055AAFF55FF55FF000000FF00101010FF39
:1003F00000141414FF001010FF00FF1010F010F094
:10040000141414FC001414F700FF0000FF00FF1484
:1004100014F404FC141417101F10101F101F1414D0
:10042000141F00101010F0000000001F101010101A
:100430001F10101010F010000000FF10101010100E
:1004400010101010FF10000000FF140000FF00FF4C
:1004500000001F10170000FC04F4141417101714E8
:1004600014F404F40000FF00F7141414141414140A
:10047000F700F7141414171410101F101F1414147D
:10048000F4141010F010F000001F101F0000001FE7
:1004900014000000FC140000F010F01010FF10FF1A
:1004A000141414FF141010101F00000000F010FFAF
:1004B000FFFFFFFFF0F0F0F0F0FFFFFF0000000093
:1004C00000FFFF0F0F0F0F0F3844443844FC4A4A17
:1004D0004A347E02020606027E027E0263554941CC
:1004E000633844443C04407E201E2006027E020203
:1004F00099A5E7A5991C2A492A1C4C7201724C3017
:100500004A4D4D303048784830BC625A463D3E49ED
:100510004949007E0101017E2A2A2A2A2A44445F91
:10052000444440514A444040444A51400000FF0185
:1005300003E080FF000008086B6B08361236243693
:10054000060F090F060000181800000010100030F8
:1005500040FF0101001F01011E00191D1712003C80
:100560003C3C3C0000000000000103070F1F3F7FE0
:100570000080C0E0F0F8FCFEDB40A4A62EAF200017
:10058000A1C8D300408DAED580A800006000000057
:100590000000000000000000000000E0000000007B
:1005A00000000000000000000001E000000000006A
:1005B000000000000000000001F00000000000004A
:1005C0000000000000000003F00000000000000038
:1005D00000000000000007F0000000000000000024
:1005E000000000000007F80000000000000000000C
:1005F000000000000FF800000003C0007E000001B2
:10060000E0007F0FF800000003C000FE000001E0E2
:1006100000FFEFF800000003C000FE000001E00052
:10062000FFFFF800000003C000F00000000F007F93
:10063000FE7FC0000003C000F00000000F003FFE7E
:100640007FF83FF1FBCFFCFEF3BC3DEFE01FFE7FE8
:10065000FF7FFBFFDFFEFEFFBC3DEFE01FC6FFFF9D
:100660007FFBFFDFFEFEFFBC3DEFE00FE3C7FE7840
:100670007BC3DE1EF0FFBC3DEF0007FF87FC787BED
:10068000C3DE1EF0F83C3DEF0001FFFFF0007BC32E
:10069000C01EF0F03C3DEF0001F37FE03FFBC3CF15
:1006A000FEF0F03C3DEF0003E33F807FFBC3DFFE45
:1006B000F0F03C3DEF0007E73C00787BC3DE1EF026
:1006C000F03C3DEF0007FFBE00787BC3DE1EF0F07C
:1006D0003C3DEF0007FFFE00787BC3DE1EF0F03CE0
:1006E0003DEF000FFFFE007FFBFFDFFEF0F03FFD60
:1006F000EFE00FFFFF007FFBFFDFFEF0F03FFDEFBD
:10070000E00FF9FF003E79F9CF9EF0F01F3DE7E0E2
:100710001FF1FF0000000000000000000000001FAB
:1007200080FF007FFFFFFFFFFFFFFFFFFFE01C00D8
:100730007F007FFFFFFFFEB46D888D18E000001F73
:10074000007FFFFFFFFE95AD7DB577E000000F0055
:100750007FFFFFFFFEA5AD9D8D19E0000006007F25
:10076000FFFFFFFEB5ADEDB57EE00000000000012B
:100770008000000000000000000003800000000076
:10078000000000000007C0000000000000000000A2
:1007900007C00000000000000000000FC0000000C3
:1007A0000000000000001FE000000000000000004A
:1007B000001FE00000000000000000003FE000001B
:1007C000000000000000003FF000000000000000FA
:1007D00000007FF0000000000000001FF87FF00024
:1007E0000000000000003FFE7FF00000000000005D
:1007F000003FFF7FF0000000000000001FFFFBE053
:10080000000000000000000FFFF9FFC00000000022
:1008100000000FFFF9FFF800000000000007FFF1E3
:10082000FFFF00000000000003FC73FFFF800000DA
:1008300000000001FE3FFFFF80000000000000FFFD
:100840001E0FFF000000000000007FFE1FFC0000E4
:1008500000000000003FFFFFF80000000000000063
:100860000FDFFFE0000000000000001F19FFC000C4
:100870000000000000003F3CFF00000000000000FE
:10088000007E7CF800000000000000007FFE7C007D
:1008900000000000000000FFFFFC0000000000005E
:1008A0000000FFFFFE0000000000000000FFFFFE50
:1008B0000000000000000001FFEFFE00000000004B
:1008C000000001FFCFFE0000000000000003FF0752
:1008D000FE0000000000000003FC07FE0000000016
:1008E00000000003F003FE00000000000000018093
:1008F00000FE000000000000000000007E0000007C
:10090000000000000000003E0000000000000000A9
:1009100000000C000000000000078000FC00000345
:10092000C0000000078001FC000003C000000007B9
:100930008001FC000003C0000000078001E000000F
:10094000001E000000078001E00000001E007FE3A1
:10095000F79FF9FDE7787BDFC0FFF7FFBFFDFDFFE5
:10096000787BDFC0FFF7FFBFFDFDFF787BDFC0F0C6
:10097000F787BC3DE1FF787BDE00F0F787BC3DE107
:10098000F0787BDE0000F787803DE1E0787BDE00D9
:100990007FF7879FFDE1E0787BDE00FFF787BFFDF3
:1009A000E1E0787BDE00F0F787BC3DE1E0787BDEBC
:1009B00000F0F787BC3DE1E0787BDE00F0F787BC14
:1009C0003DE1E0787BDE00FFF7FFBFFDE1E07FFB6C
:1009D000DFC0FFF7FFBFFDE1E07FFBDFC07CF3F38B
:1009E0009F3DE1E03E7BCFC0000000000000000022
:1009F000000000FFFFFFFFFFFFFFFFFFFFC0FFFF43
:100A0000FFFFFD68DB111A31C0FFFFFFFFFD2B5A0E
:100A1000FB6AEFC0FFFFFFFFFD4B5B3B1A33C0FFDC
:100A2000FFFFFFFD6B5BDB6AFDC01F1C1F1E1F1E4F
:100A30001F1F1E1F1E0000000023002600290000AB
:100A4000000000240027002A0000000000250028E4
:100A5000002B000404040404040404020202020241
:100A60000203030303030301020408102040800172
:100A700002040810200102040810200000000800F1
:100A80000201000003040700000000000000002233
:100A900000FF210052188F2211241FBECFEFD8E093
:100AA000DEBFCDBF23E0AEE7B1E001C01D92AA3D9D
:100AB000B207E1F711E0A0E0B1E0E8E3F2E502C03F
:100AC00005900D92AE37B107D9F715E0CBE4D5E02C
:100AD00004C02197FE010E943725CA34D107C9F707
:100AE0000E9416190C940F290C9400000895089583
:100AF0000895833081F028F4813099F08230A9F094
:100B000008958730A9F08830C9F08430B1F480911D
:100B100080008F7D03C0809180008F77809380005C
:100B2000089584B58F7784BD089584B58F7DFBCFFC
:100B30008091B0008F778093B00008958091B000CD
:100B40008F7DF9CF1F93CF93DF93282F30E0F901EA
:100B5000E558F54F8491F901E959F54FD491F90120
:100B6000ED5AF54FC491CC23A9F0162F81110E94A4
:100B70007905EC2FF0E0EE0FFF1FE75BF54FA59135
:100B8000B4918FB7F894EC91111108C0D095DE2381
:100B9000DC938FBFDF91CF911F910895DE2BF8CFAB
:100BA000CF93DF9390E0FC01E959F54F24918D5AE2
:100BB000954FFC0184918823D1F090E0880F991F14
:100BC000FC01E15CF54FA591B491FC01E75BF54FA9
:100BD000C591D49161110EC09FB7F8948C91E22F0A
:100BE000E0958E238C932881E223E8839FBFDF91D9
:100BF000CF9108958FB7F894EC91E22BEC938FBFCF
:100C0000F6CF3FB7F89480914E0290914F02A09199
:100C10005002B091510226B5A89B05C02F3F19F094
:100C20000196A11DB11D3FBFBA2FA92F982F88276C
:100C3000BC01CD01620F711D811D911D42E0660F47
:100C4000771F881F991F4A95D1F708958F929F9219
:100C5000AF92BF92CF92DF92EF92FF924B015C0175
:100C60000E9401066B017C010E9401066C197D093E
:100C70008E099F09683E734081059105A8F321E024
:100C8000821A9108A108B10888EEC80E83E0D81E28
:100C9000E11CF11C81149104A104B10429F7FF9017
:100CA000EF90DF90CF90BF90AF909F908F9008957E
:100CB0002FB7F89460914A0270914B0280914C02D8
:100CC00090914D022FBF0895AF92BF92CF92DF92C5
:100CD000EF92FF920F931F93CF93DF936C017B01F1
:100CE0008B01040F151FEB015E01AE18BF08C01782
:100CF000D10759F06991D601ED91FC910190F081F5
:100D0000E02DC6010995892B79F7C501DF91CF91B7
:100D10001F910F91FF90EF90DF90CF90BF90AF9019
:100D20000895FC01538D448D252F30E0842F90E0F1
:100D3000821B930B541710F0CF96089501970895D6
:100D4000FC01918D828D981761F0A28DAE0FBF2F9F
:100D5000B11D5D968C91928D9F5F9F73928F90E0F5
:100D600008958FEF9FEF0895FC01918D828D981764
:100D700031F0828DE80FF11D858D90E008958FEFA1
:100D80009FEF0895FC01918D228D892F90E0805C6A
:100D90009F4F821B91098F73992708958AEC92E0E7
:100DA0000E94C20621E0892B09F420E0822F0895D9
:100DB00080E090E0892B29F00E94CE0681110C94EE
:100DC00000000895FC01A48DA80FB92FB11DA35AEE
:100DD000BF4F2C91848D90E001968F739927848F5B
:100DE000A689B7892C93A089B1898C91837080647E
:100DF0008C93938D848D981306C00288F389E02D1F
:100E000080818F7D80830895EF92FF920F931F93CF
:100E1000CF93DF93EC0181E0888F9B8D8C8D9813AD
:100E20001AC0E889F989808185FF15C09FB7F894B9
:100E3000EE89FF896083E889F98980818370806405
:100E400080839FBF81E090E0DF91CF911F910F9150
:100E5000FF90EF900895F62E0B8D10E00F5F1F4F5F
:100E60000F731127E02E8C8D8E110CC00FB607FC6E
:100E7000FACFE889F989808185FFF5CFCE010E94FC
:100E8000E206F1CFEB8DEC0FFD2FF11DE35AFF4F82
:100E9000F0829FB7F8940B8FEA89FB89808180628A
:100EA000CFCFCF93DF93EC01888D8823B9F0AA8947
:100EB000BB89E889F9898C9185FD03C0808186FD15
:100EC0000DC00FB607FCF7CF8C9185FFF2CF808164
:100ED00085FFEDCFCE010E94E206E9CFDF91CF91F1
:100EE0000895EF92FF920F931F93CF93DF93EC013E
:100EF000EC80FD806E157F050CF070C057FF04C0BC
:100F0000240F351F50E040E08E819F81FA01E20FEF
:100F1000F31F8E179F071CF49C01241B350B121620
:100F200013060CF05BC0922F842F869586958695CC
:100F30008E9DD0018F9DB00D11246A0F7B1FAF8D48
:100F4000B8A1A60FB71F477049F188E0841B482F4E
:100F5000682F70E0FB01E059FA4FE491281708F080
:100F600063C0621B71092FEF30E002C035952795F1
:100F70006A95E2F7E2230130110539F0B0F1023051
:100F8000110561F58C91E82702C08C91E82BEC9358
:100F9000941720F12C813D81A20FB31FE92FE41B90
:100FA000E83078F00230110521F58E2F9C91909554
:100FB0009C932C813D81A20FB31F88508830B0F7DD
:100FC000E770EE2359F0F0E0E859FA4FE491013070
:100FD0001105F9F010F10230110519F1DF91CF91EF
:100FE0001F910F91FF90EF900895E0958C91E82369
:100FF000CECF81E00115110509F480E081959E2F87
:101000008C932C813D81A20FB31F98509830C0F76C
:10101000D7CF8C91E82BEC93E1CFE0958C91E8232E
:10102000FACF8C91E827F7CF0130110509F4ADCF45
:10103000E0F20230110509F4A5CFAE0DBF1DAECF11
:101040000F931F93CF93DF9377FF04C0260F371FB3
:1010500070E060E0DC011496CD91DC91FB01E20FC1
:10106000F31FCE17DF071CF49E01261B370B121649
:1010700013064CF5FA0157FD3796A3E0F595E79571
:10108000AA95E1F7EC9FD001ED9FB00DFC9FB00D4C
:1010900011246A0F7B1FDC015F96ED91FC91E60F36
:1010A000F71F4770552781E090E001C0880F4A95EF
:1010B000EAF7482F0130110559F0A8F02E0F3F1F15
:1010C00002301105E1F0DF91CF911F910F9108954A
:1010D0002E0F3F1FE217F307B1F38191DF01119744
:1010E000842B8C93F7CF80952E0F3F1FE217F307C9
:1010F00051F39191DF01119798239C93F7CFE21759
:10110000F30709F38191DF01119784278C93F7CFBF
:101110000F931F93FA01DC0156964C91569742307B
:10112000E9F04330A1F1413061F514964D915C91A5
:10113000DA01AE1BBF0BFD01E21BF30B77FD0BC009
:10114000DC0116964D915C916417750724F4AB0190
:10115000BF010E9420081F910F91089514964D9190
:101160005C91DA01A61BB70BBD0161507109DC016E
:1011700016964D915C91DA01AE1BBF0BFD01E21B8F
:10118000F30B77FDE8CFAF010E947107E4CF16960D
:101190004D915C91DA01A61BB70BBD01615071093D
:1011A000CDCF0F931F93FA01DC0156964C915697C1
:1011B0004230A9F0433091F1413019F514964D9128
:1011C0005C91DA01AE1BBF0BFD013197F7FD04C046
:1011D000AB01BF010E9471071F910F9108951496F2
:1011E0004D915C91DA01A61BB70BBD01DC0116968F
:1011F0004D915C91DA01AE1BBF0BFD013197621B73
:10120000730BF7FDE9CFDC0116964D915C91E41765
:10121000F50714F7AF010E942008DECF16964D9116
:101220005C91DA01A61BB70BBD01621B730BCECF1D
:10123000FC0177FD64C080859185681779070CF003
:101240005EC057FD5CC082859385481759070CF036
:1012500056C086898230B1F0833029F1813041F463
:1012600084819581841B950BAB01BC016150710990
:101270002130310509F108F443C02230310509F469
:1012800063C0089584819581DC01A61BB70BBD0165
:101290006150710986819781DC01A41BB50BAD01FA
:1012A00041505109E5CF86819781861B970BBA0182
:1012B000AC0141505109DCCFCA0157FD0796A3E0AC
:1012C00095958795AA95E1F7A481B5818A9F9001AC
:1012D0008B9F300D9A9F300D1124620F731F078C66
:1012E000F0A1E02DE60FF71F4770552721E030E011
:1012F00001C0220F4A95EAF78081822B80830895EE
:10130000CA0157FD079633E0959587953A95E1F721
:10131000A481B5818A9F90018B9F300D9A9F300DDB
:101320001124620F731F078CF0A1E02DE60FF71F49
:101330004770552781E090E001C0880F4A95EAF791
:10134000809590818923DACFCA0157FD079623E063
:10135000959587952A95E1F7A481B5818A9F90019B
:101360008B9F300D9A9F300D1124620F731F078CD5
:10137000F0A1E02DE60FF71F4770552721E030E080
:1013800001C0220F4A95EAF780818227B7CF8EBD30
:1013900000000DB407FEFDCF8EB508950895FC0141
:1013A0006370668B8481958126813781613039F045
:1013B000633029F0918780873387228708953187AA
:1013C00020879387828708952F923F924F925F9252
:1013D0006F927F928F929F92AF92BF92CF92DF9245
:1013E000EF92FF920F931F93CF93DF93CDB7DEB7AA
:1013F0006A970FB6F894DEBF0FBECDBF9A8F898F64
:101400007A8369834A01D22E18870F833701BC2C57
:10141000DC0159962D913C915A972115310509F01F
:1014200015C118968D919C911997681779070CF042
:10143000D7C11A968D919C91481759070CF0D0C1CD
:101440004C2C512CB6E0CB9E600D711D11247C8775
:101450006B87161617060CF0C3C1EA2DF0E0FA8769
:10146000E98793E0EE0FFF1F9A95E1F7F88BEF877E
:10147000CF01840F951F181619060CF0B1C1A98D64
:10148000BA8D58968C91811104C0BFEABD1508F43D
:10149000D394A98DBA8DED91FC9111970284F385B7
:1014A000E02DCD010995B5E0DB9EC0011124E98155
:1014B000FA81FC83EB83312C212C9C0128593F4F6E
:1014C000388F2F8B4A2D50E05E8B4D8BEF89F88D36
:1014D000E20DF31D44919E828D82D12CC12C698135
:1014E0007A81620D731D7A8B698B842F90E09C8BBF
:1014F0008B8BE98DFA8DA081B18140FF82C0F1E034
:10150000BF126FC0AF126DC01C96ED91FC912F8180
:101510003885A4014C0D5D1D69897A89898D9A8D64
:101520000995EB89FC89F595E7954E2F5FEFC51A74
:10153000D50A6D817E818D899E89680F791F7E8392
:101540006D8398E0C916D10481F6AFEF2A1A3A0AE2
:10155000EB81FC81E40DF51DFC83EB83F5E02F1698
:10156000310409F0B3CF2F81388526153705B9F03E
:10157000A98DBA8DED91FC91B1E0BB1257C0AB12B1
:1015800055C069817A816B5F7F4F0088F189E02DBA
:10159000830128E030E0A401898D9A8D0995A98DF9
:1015A000BA8DED91FC9111970688F789E02DCD0158
:1015B0006A960FB6F894DEBF0FBECDBFDF91CF9114
:1015C0001F910F91FF90EF90DF90CF90BF90AF9061
:1015D0009F908F907F906F905F904F903F902F9053
:1015E00009941E96ED91FC91EF80F88409851A8587
:1015F00092014D815E816B817C81898D9A8D0995E7
:1016000090CF2F8138852615370509F48ACF31E030
:10161000B31207C0A31205C01C96ED91FC91930173
:1016200078CF1E96ED91FC917301E0CF6B857C85A0
:10163000641975090684F785E02D73010F851889F3
:101640009201A401898D9A8D0995A9CFF90134964B
:101650009491329745915491D91AB7E0DB9E400D91
:10166000511D1124F901259134913C8B2B8BFA01EA
:1016700025903490FA013296749031963491398BDA
:10168000329664903196449041E04C1518F04A151A
:1016900008F07FC0662D062C000C770B7C836B83D3
:1016A000842D042C000C990B9E838D83A98DBA8DFB
:1016B000ED91FC9111970284F385E02DCD01099500
:1016C000512CD12CC12CEA2DF0E0FA87E9872B2D83
:1016D00030E03C872B87A401440D511D47FC5A95EF
:1016E000588F4F8B69817A81660D711D67FC7A95E1
:1016F0007E876D877989C71608F051CF2C2D30E091
:101700004D815E81420F531FA985BA854A9FC00152
:101710004B9F900D5A9F900D1124FC01E80DF91D6F
:10172000F88BEF87852D612C4F89588D420F531F01
:101730005E8B4D8B671408F050C044244394480ED0
:10174000877041F4C1010196EB89FC89E20DF31D1C
:10175000D4901C01D7FE19C0A98DBA8DED91FC91D2
:10176000662D70E0B1E0BB1219C0AB1217C02D8519
:101770003E85620F731F0484F585E02D2F81388527
:101780004D895E89898D9A8D0995DD0C6394842D30
:10179000D1CF1E821D821C821B8288CF4B815C812F
:1017A000640F751FAB85BC856A9FC0016B9F900D50
:1017B0007A9F900D112469817A81680F791F0684C0
:1017C000F785E02DEF80F88409851A859D014F8506
:1017D0005889898D9A8D0995D8CF570CC3948ACF93
:1017E0006A960FB6F894DEBF0FBECDBFDF91CF91E2
:1017F0001F910F91FF90EF90DF90CF90BF90AF902F
:101800009F908F907F906F905F904F903F902F9020
:1018100008958F929F92AF92CF92EF92FF920F9383
:101820001F93CF93DF93EC01262F898D9A8D00971C
:1018300009F051C06A30D1F41D861C868D8948E0BC
:10184000849F900111248E859F85820F931F9F870F
:101850008E8781E090E0DF91CF911F910F91FF90F3
:10186000EF90CF90AF909F908F9008956D3089F357
:10187000CC88AD888F898823C1F08C859D8536E022
:10188000C39E800D911D112448855985481759071D
:1018900064F44E855F851D861C8638E0A39EC001DA
:1018A0001124840F951F9F878E87EA88FB880889FB
:1018B00019894E855F856C857D85CE010E94E4097E
:1018C0002C898C859D8546E0249F800D911D1124D7
:1018D0009D878C87BECF6A3069F41D861C86FC010B
:1018E0003896E4912D898E859F85E29F800D911D0C
:1018F0001124ADCF6D3009F4ACCFFC013496349196
:10190000631708F4A6CF3296E491E61708F4A1CF46
:10191000FC01329685909490462F431B342F47E06C
:10192000349F800C911C1124F4013296349131962D
:10193000E4913323A9F1EE2399F1CC88F401359693
:10194000E491AD884F89442301F10E2E000CFF0B6A
:10195000E30FF11DCE9EA001CF9E500D11246C858A
:101960007D85460F571F68857985641775076CF468
:101970004E855F851D861C86FC013896E491AE9EDF
:10198000400D511D11245F874E87EA88FB88088926
:1019900019894E855F856C857D85CE010E94E4099D
:1019A000F4013496E4912C898C859D85E29F800D0D
:1019B000911D11248DCF6F927F928F929F92AF9243
:1019C000BF92CF92DF92EF92FF920F931F93CF932C
:1019D000DF93EC016B015A0139014801E881F9817B
:1019E0000284F385E02D0995E881F9810288F38965
:1019F000E02D87019301A501B601CE010995A5014E
:101A0000480D591D41505109E881F9810288F38937
:101A1000E02D9301B601CE010995E881F981008896
:101A2000F189E02D9401A501B601CE010995C60CFE
:101A3000D71CB60161507109E881F9810088F189EC
:101A4000E02D9401A501CE010995E881F981068870
:101A5000F789E02DCE01DF91CF911F910F91FF907B
:101A6000EF90DF90CF90BF90AF909F908F907F903E
:101A70006F9009946F927F928F929F92AF92BF92D4
:101A8000CF92DF92EF92FF920F931F93CF93DF934A
:101A90005C01EB016A01490138018701DC01ED912C
:101AA000FC916217730719F5641675062CF0962DD4
:101AB000872D3A01C92ED82E9601261937092F5F96
:101AC0003F4F048CF58DE02DA301BE01C5010995A2
:101AD000DF91CF911F910F91FF90EF90DF90CF900A
:101AE000BF90AF909F908F907F906F900895461514
:101AF000570591F42617370724F0892D4B01C22F83
:101B0000D82F9E01281939092F5F3F4F068CF78D7A
:101B1000E02DA601B401DACF0284F385E02D09950A
:101B2000D501ED91FC910488F589E02D83019401A4
:101B3000A601BE01C5010995D501ED91FC9106886C
:101B4000F789E02DC501DF91CF911F910F91FF9093
:101B5000EF90DF90CF90BF90AF909F908F907F904D
:101B60006F900994EF92FF920F931F93DC011A96E6
:101B70000D911C911B9718962D913C911997ED9101
:101B8000FC9100A0F1A1E02D7B0150E040E070E06D
:101B900060E009951F910F91FF90EF9008954F928B
:101BA0005F926F927F928F929F92AF92BF92CF92ED
:101BB000DF92EF92FF920F931F93CF93DF936C010D
:101BC0002B015A0139014801DC01ED91FC9102849D
:101BD000F385E02D0995E201640C751CD601ED91A9
:101BE000FC91C615D7055CF40088F189E02D8701CA
:101BF0009401A501BE01C60109952196EFCF068883
:101C0000F789E02DC601DF91CF911F910F91FF90D1
:101C1000EF90DF90CF90BF90AF909F908F907F908C
:101C20006F905F904F9009948F929F92AF92BF9266
:101C3000CF92DF92EF92FF920F931F93CF93DF9398
:101C4000EC015B014A016901E881F9810284F385B5
:101C5000E02D099595012C0D3D1D21503109E8819C
:101C6000F9810488F589E02D78018401A401B5018A
:101C7000CE010995E881F9810688F789E02DCE012A
:101C8000DF91CF911F910F91FF90EF90DF90CF9058
:101C9000BF90AF909F908F9009948F929F92AF9238
:101CA000BF92CF92DF92EF92FF920F931F93CF9349
:101CB000DF93EC015B014A0169017801E881F98158
:101CC0000284F385E02D0995C80CD91C86010150CA
:101CD0001109E881F9810488F589E02D9501A401B5
:101CE000B501CE010995E881F9810688F789E02DD3
:101CF000CE01DF91CF911F910F91FF90EF90DF9078
:101D0000CF90BF90AF909F908F900994EF92FF92E9
:101D10000F931F93DC01ED91FC9100A0F1A1E02D48
:101D200009951F910F91FF90EF9008950F931F93C6
:101D3000DC01ED91FC91068CF78DE02D09951F914A
:101D40000F9108950F931F93DC01ED91FC91048C8A
:101D5000F58DE02D09951F910F910895DC01ED910E
:101D6000FC910084F185E02D09943F924F925F929F
:101D70006F927F928F929F92AF92BF92CF92DF929B
:101D8000EF92FF920F931F93CF93DF935C017B0140
:101D90004A016901390187E0680E711C93E075946E
:101DA00067949A95E1F72B01400E511E10E000E078
:101DB000312CD0E0C0E0CE0187709927330C892BFD
:101DC00059F4FE0183E0F595E7958A95E1F7E00F78
:101DD000F11FE80DF91D349037FE0AC021E030E014
:101DE000A701B5016C0F7D1F8BE793E00E94AE0E3B
:101DF0002196CC16DD06F9F68FEFE81AF80A060DE3
:101E0000171DE414F504A9F6DF91CF911F910F91EE
:101E1000FF90EF90DF90CF90BF90AF909F908F900A
:101E20007F906F905F904F903F9008952F923F92D8
:101E30004F925F926F927F928F929F92AF92BF92DA
:101E4000CF92DF92EF92FF920F931F93CF93DF9386
:101E500000D000D000D0CDB7DEB73C016A013E8390
:101E60002D83FC82EB825801A41AB50AB7FE03C089
:101E7000B194A194B1088D809E80861A970A97FE2E
:101E800003C09194819491088A149B045CF0902F74
:101E9000812F0D811E819D838E839C2D8D2D6B0145
:101EA000692F782F0C151D055CF09D818E817E8336
:101EB0006D83692F782F902F812F8601C92ED82E00
:101EC0001601201A310A2B012D813E81421A530A34
:101ED00057FE03C0519441945108710137FE03C06D
:101EE0003FEFE31AF30AF594E7948D819E818617FC
:101EF00097075CF5A1E0B0E0BA83A983C016D106CC
:101F00004CF1D301ED91FC910484F585E02D2B81FA
:101F10003C81A8016D817E818A149B041CF04D8157
:101F20005E81B801C3010995E418F508F7FE0AC0FF
:101F30002D813E8189819A81280F391F3E832D830F
:101F4000E20CF31C0F5F1F4FD9CF2FEF3FEF3A8307
:101F50002983D4CF26960FB6F894DEBF0FBECDBF2F
:101F6000DF91CF911F910F91FF90EF90DF90CF9075
:101F7000BF90AF909F908F907F906F905F904F90A9
:101F80003F902F900895089508958CBD9DBD0895AC
:101F900020919F01260F3327331F21323105ECF4A6
:101FA0002091A002FC0190E080E0243069F082E002
:101FB0000895A0919F012191AC0141585E4FA40F5B
:101FC000B52FB11D2C930196861798F380919F0130
:101FD000680F60939F0180E0089581E0089510925A
:101FE000A00281E080939F0210927A0261E082E178
:101FF0000E94A20561E083E10E94A205E9EBF0E006
:1020000080818E7F808380818D7F808388E4809330
:10201000B80085E48093BC00089510927902109274
:1020200078021092A7021092C9020E94EF0F86E771
:1020300095E0909377028093760287E795E09093FE
:102040007502809374020895CF93DF9391E090938B
:102050007E018823B9F0C091B800D091BA00809178
:10206000BC008A7B8093BC0060E082E10E94A205F4
:1020700060E083E10E94A2050E94EF0FD093BA00B6
:10208000C093B800DF91CF9108958F929F92AF9245
:10209000BF92CF92DF92EF92FF920F931F93CF9355
:1020A000DF93D091C902D13208F0D7C0182FC09168
:1020B000C8020E9401066B017C018091A00281117F
:1020C0006BC082E08093A00210939F028FEF8093F9
:1020D0009E0210929D02D0939C02A8EAB2E0ECE727
:1020E000F2E080E0D81391C010927B0280917B02D5
:1020F000CC0FC82BC0937B0280917A02813009F00B
:1021000088C010927A020E9401066B017C018091C6
:102110007B028093BB008091A2029091A302A091C8
:10212000A402B091A502892B8A2B8B2BA1F00E94CF
:1021300001060091A2021091A3022091A402309105
:10214000A5026C197D098E099F0906171707280734
:10215000390708F442C08091BC0083FDD8CF85ECDC
:102160008093BC000E9401066B017C018091A0025B
:10217000823009F450C080919E028F3F09F46FC0F5
:1021800080919E02803209F46CC080919E0280335F
:1021900009F469C084E026C08091A2029091A30254
:1021A000A091A402B091A502892B8A2B8B2B09F454
:1021B00084CF0E9401068090A2029090A302A0907A
:1021C000A402B090A5026C197D098E099F0986169C
:1021D0009706A806B90608F070CF8091A1020E9468
:1021E000241085E01092A7021092C9021092A60254
:1021F000DF91CF911F910F91FF90EF90DF90CF90E3
:10220000BF90AF909F908F9008959D9191938F5F15
:1022100069CF85EEA5CF8091A2029091A302A091F3
:10222000A402B091A502892B8A2B8B2B09F49ECF97
:102230000E9401060091A2021091A3022091A40223
:102240003091A5026C197D098E099F0906171707A1
:102250002807390708F08ACFC0CF81E0C3CF80E0DC
:10226000C1CF82E0BFCF83E0BDCFE0917902809102
:102270007802E81730F4F0E0EC5AFD4F808190E0EE
:1022800008958FEF9FEF08959091790280917802E1
:102290002FEF3FEF981748F4E92FF0E0EC5AFD4F8D
:1022A000208130E09F5F90937902C9010895809169
:1022B000780290917902891B990B0895CF92DF9251
:1022C000EF92FF920F931F93CF93DF937C01CB018B
:1022D0008A012091A602222389F0EB016B01C40E32
:1022E000D51ECC15DD0569F06991D701ED91FC9102
:1022F0000190F081E02DC7010995F3CF642F0E9472
:10230000C80FC801DF91CF911F910F91FF90EF90FF
:10231000DF90CF900895CF93DF931F92CDB7DEB7B4
:1023200069832091A6022223F9F02091C90220326C
:1023300058F021E030E0FC013383228390E080E01C
:102340000F90DF91CF9108958091A702E82FF0E0E0
:10235000E855FD4F998190838F5F8093A70280930A
:10236000C90281E090E0ECCF61E0CE0101960E94CD
:10237000C80FF7CF81E00C944510EF92FF920F93B6
:102380001F93CF93DF937C01C62F80919803909188
:102390009903009709F459C020919C0331E03093D0
:1023A000A6022093C8021092A7021092C902DC0173
:1023B000ED91FC910190F081E02D60E0099587019D
:1023C000EE24E394F12CD1E0C150809198039091D8
:1023D0009903CF3F91F1B0E2EB16F104D8F00E94DF
:1023E000BA11809198039091990320919C03D09306
:1023F000A6022093C8021092A7021092C902DC0123
:10240000ED91FC910190F081E02D60E00995EE24C2
:10241000E394F12C8091980390919903F8016491D1
:10242000DC01ED91FC910190F081E02D0995BFEF69
:10243000EB1AFB0A0F5F1F4FC7CFDF91CF911F91A0
:102440000F91FF90EF900C94BA11E091A803F091D6
:10245000A90390818091AE038095892380838701B1
:10246000C15008F438C0F80184912091960330914E
:102470009703232B29F00E94C7090F5F1F4FF0CF4E
:1024800028E030E040E8E091A403F091A5039091AA
:10249000AC03582F5423D9F05081952B9083E091B1
:1024A000A603F091A70390815091AD03952B9083E3
:1024B000E091A603F091A70350819091AD03909510
:1024C00095239083469521503109E9F6D6CF508166
:1024D00090959523E3CFDF91CF911F910F91FF90BE
:1024E000EF9008951F93CF93DF93EC018D8D9E8D18
:1024F000009721F1162F29A131E03093A6022093F5
:10250000C8021092A7021092C902DC01ED91FC9161
:102510000190F081E02D60E009958D8D9E8DDC01AC
:10252000ED91FC910190F081E02D612F09958D8D49
:102530009E8DDF91CF911F910C94BA11ADA5BEA5D0
:102540009C918BA9809589238C938B8D9C8D892B55
:1025500031F0862FDF91CF911F910C94C70928E0AD
:1025600030E080E8A9A5BAA599A9462F4823C1F073
:102570004C91942B9C93ABA5BCA59C914AA9942B00
:102580009C93ABA5BCA54C919AA9909594239C9340
:1025900086952150310931F7DF91CF911F91089530
:1025A0004C9190959423E6CFDF92EF92FF920F9398
:1025B0001F93CF93DF938091980390919903892B78
:1025C00009F498C02091B0033091B1034091B20357
:1025D0005091B30360E074E284EF90E00E948C2499
:1025E000205131094109510956954795379527954D
:1025F0002093B80065E08FE89AE00E94BD116091D9
:102600007F0361508BE793E00E9472122091810357
:1026100030918203C901079697FD079633E095959F
:1026200087953A95E1F720917F0330918003829F4F
:102630008001839F100D929F100D1124C0919A0369
:10264000D0919B0380919803909199030C0F1D1FCB
:10265000009709F48FC020919C0331E03093A602CB
:102660002093C8021092A7021092C902DC01ED91DA
:10267000FC910190F081E02D60E40995EE24E39453
:10268000F12CDD24D39480919803909199030C1739
:102690001D0709F446C0B0E2EB16F104D8F00E9421
:1026A000BA11809198039091990320919C03D09244
:1026B000A6022093C8021092A7021092C902DC0160
:1026C000ED91FC910190F081E02D60E40995EE24FC
:1026D000E394F12C80919803909199036991DC0126
:1026E000ED91FC910190F081E02D0995BFEFEB1A7F
:1026F000FB0AC9CF8091960390919703892B31F003
:102700008091B9039091BA030E94C50FE091AA038A
:10271000F091AB0390818091AF03809589238083F2
:1027200069CF0E94BA118091980390919903892BE7
:1027300009F461C02091B4033091B5034091B60310
:102740005091B70360E074E284EF90E00E948C2423
:1027500020513109410951095695479537952795DB
:102760002093B800DF91CF911F910F91FF90EF90D0
:10277000DF900895E091A803F091A90380819091E2
:10278000AE03892B80830C171D0769F28991209174
:10279000960330919703232B19F00E94C709F3CFBA
:1027A00028E030E040E8E091A403F091A503909187
:1027B000AC03582F5423D9F05081952B9083E0918E
:1027C000A603F091A70390815091AD03952B9083C0
:1027D000E091A603F091A70350819091AD039095ED
:1027E00095239083469521503109E9F6CCCF50814D
:1027F00090959523E3CFE091AA03F091AB038081FC
:102800009091AF03892B8083ADCF1F93CF93DF933C
:10281000EC01162F8D8D9E8D892BB1F12DA93EA92E
:102820004FA958AD60E074E284EF90E00E948C24E0
:1028300020513109410951095695479537952795FA
:102840002093B80066EA111167EACE010E94721265
:102850008D8D9E8D892B41F129AD3AAD4BAD5CAD8F
:1028600060E074E284EF90E00E948C2420513109F2
:102870004109510956954795379527952093B800FA
:10288000DF91CF911F9108958B8D9C8D892B21F025
:102890008EAD9FAD0E94C50FEFA5F8A990818CA9C0
:1028A000809589238083CECFEFA5F8A980819CA94C
:1028B000892B8083E5CFCF93DF93EC018B81882335
:1028C000A9F089819A81288131E03093A602209372
:1028D000C8021092A7021092C9020E94BA1191E098
:1028E000811190E0892FDF91CF9108950E940D1002
:1028F00081E08B83CE010E945B14982F8111E1CF80
:10290000F1CF90E080E008952F923F924F925F9236
:102910006F927F928F929F92AF92BF92CF92DF92EF
:10292000EF92FF920F931F93CF93DF935C011B01F4
:102930006A01F12CE12CD50114968D919C918601B0
:102940000E191F098017910708F48C01F501D08139
:102950000E9401062B013C018091A002811172C0EE
:10296000C02F013208F0C0E2F1E0F093A00221E0B4
:10297000C601801B910BE816F90608F420E02093AD
:102980009F028FEF80939E0210929D028C0F809386
:102990009C02A1E0A0937B0280917B02DD0FD82BEB
:1029A000D0937B0280917A02813009F090C010921E
:1029B0007A020E9401062B013C0180917B028093E8
:1029C000BB008091A2029091A302A091A402B091B9
:1029D000A502892B8A2B8B2BA1F00E940106209146
:1029E000A2023091A3024091A4025091A502641961
:1029F000750986099709261737074807590708F404
:102A000042C08091BC0083FDD8CFB5ECB093BC0030
:102A10000E9401062B013C018091A002813009F443
:102A20005AC080919D028C1710F4C0919D02ACE7B2
:102A3000B2E0E4E5F2E080E08C1751F19D919193D2
:102A40008F5FFACF8091A2029091A302A091A4027D
:102A5000B091A502892B8A2B8B2B09F47DCF0E9484
:102A600001062091A2023091A3024091A40250914C
:102A7000A5026419750986099709261737074807BB
:102A8000590708F069CF8091A1020E942410C0E08C
:102A900010927902C0937802C017110609F057C04E
:102AA00041018E0C9F1CE401CE0188199909801701
:102AB000910798F5D50111968D919C91DC01ED91CE
:102AC000FC910284F385E02D09958993EDCFE5EE25
:102AD000E093BC009DCF8091A2029091A302A091AF
:102AE000A402B091A502892B8A2B8B2B09F494CFD9
:102AF0000E9401062091A2023091A3024091A402FB
:102B00005091A50264197509860997092617370798
:102B10004807590708F080CFB6CFE00EF11EEC143D
:102B2000FD0408F408CF81E0DF91CF911F910F9150
:102B3000FF90EF90DF90CF90BF90AF909F908F90DD
:102B40007F906F905F904F903F902F90089580E01E
:102B5000EBCF1F93CF93DF93DC011496ED91FC91A3
:102B6000E417F50710F490E01FC0122FEA01FC01F2
:102B700081819281208131E03093A6022093C802A6
:102B80001092A7021092C902DC01ED91FC91028023
:102B9000F381E02D0995C817D90729F7812F0E94E5
:102BA000451091E08111DFCF892FDF91CF911F91E7
:102BB0000895CF92DF92EF92FF920F931F93CF93DE
:102BC000DF9300D0CDB7DEB781E189831A8200910F
:102BD00052021091530220E041E050E0BE016F5FCD
:102BE0007F4FC8010E94A915882341F042E050E0C0
:102BF000BE016F5F7F4FC8010E9484146A8170E03C
:102C000086E0759567958A95E1F7072E000C880B8D
:102C1000990B0E94A02220E030E040E85EE30E9491
:102C2000DB226B017C01698170E090E080E00E9412
:102C30009E229B01AC01C701B6010E94D1230F90D7
:102C40000F90DF91CF911F910F91FF90EF90DF9048
:102C5000CF9008952091810330918203C901079696
:102C600097FD079623E0959587952A95E1F72091A2
:102C70007F0330918003829FA001839F500D929F1C
:102C8000500D112470E060E080919A0390919B03B5
:102C90000C946726FC0101900020E9F73197AF0101
:102CA000481B590BBC018BE793E00C9464060E940F
:102CB000622685ED8093BC008091A2029091A302D0
:102CC000A091A402B091A5020796A11DB11D23E019
:102CD000B695A795979587952A95D1F72091BC0031
:102CE00024FD03C01092A00208954091A2025091C9
:102CF000A3026091A4027091A502452B462B472B9D
:102D000069F30097A105B10541F02AE22A95F1F790
:102D100000C00197A109B109E1CF8091A1020C94F3
:102D200024101F920F920FB60F9211242F933F93EE
:102D30008F939F93AF93BF9380914A0290914B02E0
:102D4000A0914C02B0914D023091490223E0230F33
:102D50002D3758F50196A11DB11D2093490280938E
:102D60004A0290934B02A0934C02B0934D02809183
:102D70004E0290914F02A0915002B09151020196E3
:102D8000A11DB11D80934E0290934F02A09350025B
:102D9000B0935102BF91AF919F918F913F912F912D
:102DA0000F900FBE0F901F90189526E8230F0296E4
:102DB000A11DB11DD2CF1F920F920FB60F921124F9
:102DC0002F933F934F935F936F937F938F939F9333
:102DD000AF93BF93EF93FF938AEC92E00E94E206D9
:102DE000FF91EF91BF91AF919F918F917F916F91E3
:102DF0005F914F913F912F910F900FBE0F901F90B9
:102E000018951F920F920FB60F9211242F938F9344
:102E10009F93EF93FF93E091DA02F091DB028081C0
:102E2000E091E002F091E10282FD1BC0908180916F
:102E3000E3028F5F8F732091E402821741F0E091EB
:102E4000E302F0E0E653FD4F958F8093E302FF919C
:102E5000EF919F918F912F910F900FBE0F901F9028
:102E600018958081F4CF1F920F920FB60F92112404
:102E70002F933F934F935F936F937F938F939F9382
:102E8000AF93BF93EF93FF938091B900887F803613
:102E900009F44AC0F0F5883209F4A7C018F580316A
:102EA00009F49BC0B8F4882309F4F9C0883009F408
:102EB00094C0FF91EF91BF91AF919F918F917F91BE
:102EC0006F915F914F913F912F910F900FBE0F9097
:102ED0001F901895883109F488C0803251F780938B
:102EE0009E0214C0803409F49DC040F48033B9F3CD
:102EF0008833F9F680939E0285ECB0C0803509F4E2
:102F000085C0883509F496C0883499F60E94591610
:102F1000D0CF883909F48CC038F5883729F050F4BF
:102F2000883611F0803729F683E08093A002109252
:102F3000C10157C0883809F47BC0803919F0803846
:102F400009F0B7CF8091C101803208F071C0E091E3
:102F5000C10181E08E0F8093C1018091BB00F0E040
:102F6000EF55FE4F80833DC0803B39F0E0F4803A5E
:102F700009F479C0883A09F09CCF84E08093A002DC
:102F80001092A00110929F01E0917602F0917702D9
:102F9000099580919F0181110FC081E080939F016D
:102FA00010927F0109C0803C09F4A6CF883C09F447
:102FB000A3CF883B09F07DCFE091A00181E08E0F87
:102FC0008093A001F0E0E158FE4F80818093BB0028
:102FD0009091A00180919F0129C080917B028093F4
:102FE000BB0085EC8093BC0064CF90919D028091E2
:102FF0009C02981758F5E0919D0281E08E0F809316
:103000009D02F0E0E458FD4F8081E9CFE0919D0200
:1030100081E08E0F80939D028091BB00F0E0E45828
:10302000FD4F808390919D0280919C029817C8F279
:1030300085E8D8CFE0919D0281E08E0F80939D02BC
:103040008091BB00F0E0E458FD4F808380919F02A7
:1030500081115CCF81E080937A0284EA8093BC0086
:103060001092A00226CF85EC8093BC001092A002A3
:103070008091C101803230F4E091C101F0E0EF5560
:10308000FE4F10826091C10170E0E0917402F091F6
:10309000750281EA91E009951092C1010ACF109260
:1030A0009E0234CF8F929F92AF92BF92CF92DF92C7
:1030B000EF92FF920F931F93CF93DF93EAECF2E02E
:1030C0001382128288EE93E0A0E0B0E084839583BF
:1030D000A683B78320E131E03183208325EC30E003
:1030E0003587248724EC30E03787268720EC30E0D2
:1030F000318B208B21EC30E0338B228B22EC30E0C3
:10310000358B248B26EC30E0378B268B118E128E7C
:10311000138E148E0FE613E0F8011382128284835B
:103120009583A683B78382E291E091838083CBEB82
:10313000D3E087E188838BE0898385E18A831B82E2
:103140001C821D820E9458064B015C016E839F8287
:103150008887B9861A861B861C861D86EBE7F3E0F6
:103160001382128220E830E03583248380E490E0EB
:10317000978386833187208793878287168A15866F
:1031800014861786168681E0858B848B2FEF3FEFA0
:10319000338B228B318B208B878B108E128E118E6E
:1031A00084E391E091838083148E138E168F058FB4
:1031B00010A2178E8FEF84A385A386A387A384E034
:1031C00080A780E89AE1A6E0B0E085AB96ABA7AB1C
:1031D000B0AF80EA96E8A1E0B0E081AF92AFA3AFD4
:1031E000B4AF80E586AF17AE0E945806DC01CB0174
:1031F0006093670390936803A0936903B0936A0395
:1032000010926B0310926C0310926D0310926E0378
:10321000DF91CF911F910F91FF90EF90DF90CF90B2
:10322000BF90AF909F908F900C945806CF93DF93F0
:10323000CDB7DEB7E8970FB6F894DEBF0FBECDBFAF
:10324000789484B5826084BD84B5816084BD85B581
:10325000826085BD85B5816085BD80916E0081608D
:1032600080936E0010928100809181008260809333
:103270008100809181008160809381008091800035
:103280008160809380008091B10084608093B10060
:103290008091B00081608093B00080917A0084605A
:1032A00080937A0080917A00826080937A00809186
:1032B0007A00816080937A0080917A0080688093A0
:1032C0007A001092C10061E088E00E94D00561E0C0
:1032D0008CE00E94D00561E08BE00E94D00561E0A7
:1032E00089E00E94D005E091DA02F091DB0282E0F1
:1032F0008083E091D602F091D7021082E091D8024B
:10330000F091D9028FEC80831092E202E091DE020C
:10331000F091DF0286E08083E091DC02F091DD0233
:10332000808180618083E091DC02F091DD02808108
:1033300088608083E091DC02F091DD02808180680A
:103340008083E091DC02F091DD0280818F7D8083BB
:1033500060E082E00E94D00560E083E00E94D0053A
:1033600060E084E00E94D00560E085E00E94D00526
:1033700080919A0390919B03892B11F10E942A1648
:10338000209181033091820380917F03909180038B
:10339000213231050CF0A5C1B9016052710977FFE6
:1033A00002C06F5F7F4F759567958357910997FDB1
:1033B000019600E210E023E730E04AE855E0A4C1BE
:1033C0002091810330918203C901079697FD0796EA
:1033D000B3E095958795BA95E1F720917F033091F9
:1033E00080033C01629EC001639E900D729E900D11
:1033F00011240E943D2590939B0380939A03892B6F
:1034000009F0BCCF0E94D4128091520290915302D5
:10341000009711F00E94D92586E090E00E943D259A
:103420008C0188E6F80180838FE693E092838183A4
:10343000138280E290E0958384831093530200937B
:1034400052020E940D1081E0F8018383C8010E949E
:103450005B148E010F5F1F4F1801AE01485D5F4F77
:103460005CA74BA744244394512C60E088E00E9461
:10347000A20518E060E08BE00E94A20561E08CE00C
:103480000E94A20560E08CE00E94A205115091F715
:1034900061E088E00E94A205F09000010F2D10E08D
:1034A00061E089E00E94D0050115110509F0FBC219
:1034B00060E089E00E94A2058091D301811103C0E0
:1034C00081E08093D3018091CB01811117C00E94CC
:1034D00058068B019C016093C3011093C401809333
:1034E000C5013093C6011092C7011092C801109215
:1034F000C9011092CA0181E08093CB0186E0F101FD
:1035000011928A95E9F72091C3013091C40140914D
:10351000C5015091C6016091C7017091C8018091A9
:10352000C9019091CA01A4E60E940D252DAB3EABC6
:103530004FAB58AF7B018C010E9458063B014C01F8
:10354000A12CB12C65016DA77EA68FA798AAA9AA68
:10355000BAAACBAADCAA2DA93EA94FA958ADB7019A
:10356000C80153016401E12CF12C00E010E00E943D
:10357000222509F0D0F50E9458068B019C0160932A
:10358000C3011093C4018093C5013093C60110920A
:10359000C7011092C8011092C9011092CA0182E4B9
:1035A00089838091D0038A838091D1038B8381E0CA
:1035B0009091F501911101C080E090910602911166
:1035C00092E0890F90911702911194E0890F9091E8
:1035D0002802911198E0890F8C831D8246E050E00B
:1035E000B1018AEC92E00E9464068AEC92E00E94AB
:1035F000C206892B09F413C38E010F5D1F4F0E9471
:1036000058066093D2027093D3028093D4029093B1
:10361000D5028AEC92E00E94A00697FF76C70E942E
:103620005806C090D202D090D302E090D402F0901D
:10363000D5026C197D098E099F09C090CE02D090E9
:10364000CF02E090D002F090D1026C157D058E057E
:103650009F05F8F289A1843409F0E1C21AA1109300
:10366000C903FBA1F093CA035CA15093CB034DA106
:103670004093CC033EA13093CD032FA1A22FB0E005
:10368000B093CF03A093CE031A821982EAE0812F70
:103690006E2F0E946C24982F880F890F880F810F3E
:1036A0008A838F2F0E946C24982F880F890F880F90
:1036B0008F0F8B83852F0E946C24982F880F890F82
:1036C000880F850F8C83642F70E0EAE2FAE081E0D6
:1036D000831708F02FC29491690F711D8F5F319687
:1036E000F7CFB9016054710977FF02C06F5F7F4F58
:1036F000759567958255910997FD019600E410E054
:1037000022E530E04AE657E0959587950E94B50E90
:1037100082E080939D038091980390919903892B77
:1037200009F4CBC08CE380939C030E940D10809120
:10373000A30387FD1EC061E00E94D00561E0809177
:10374000A3030E94A20561E070E080E090E00E9487
:10375000260660E08091A3030E94A2056AE070E063
:1037600080E090E00E94260661E08091A3030E9421
:10377000A2058091980390919903892B09F45CC16B
:103780002091B0033091B1034091B2035091B30343
:1037900060E074E284EF90E00E948C2420513109B3
:1037A0004109510956954795379527952093B800BB
:1037B00064E086E895E00E94BD116091810361504C
:1037C0008BE793E00E94721264E082E895E00E9429
:1037D000BD1180919D0360E1813009F064E18BE7C8
:1037E00093E00E94721264E08EE795E00E94BD11A2
:1037F0008FE88093B80380917F0390918003803895
:10380000910509F032C18091810390918203803447
:10381000910509F03AC180919D03813009F023C1DF
:103820008FE98093B80312E16AED8BE793E00E9481
:103830007212612F8BE793E00E94721261E88BE7AE
:1038400093E00E9472126091B8038BE793E00E94AC
:10385000721269ED8BE793E00E94721280919D03D2
:1038600062E2813009F061EF8BE793E00E9472120F
:1038700066E088E795E00E94BD11809198039091E1
:103880009903892B09F405C12091B4033091B50344
:103890004091B6035091B70360E074E284EF90E08A
:1038A0000E948C24205131094109510956954795B0
:1038B000379527952093B800A5CD61E08091A103AD
:1038C0000E94D00561E08091A2030E94D005809102
:1038D000A103082E000C990BFC01ED5AF54FE49161
:1038E000F0E0EE0FFF1FE75BF54F25913491309329
:1038F000A9032093A803FC01E959F54FE491E09353
:10390000AE038091A203082E000C990BFC01ED5A26
:10391000F54FE491F0E0EE0FFF1FE75BF54FA59147
:10392000B491B093AB03A093AA03FC01E959F54FFE
:10393000E491E093AF038C91E82BEC938091960394
:1039400090919703892B09F434C01FB7F8948091A4
:10395000C201811127C0EDE5FAE08491E1E7FAE0C8
:103960009491E82FF0E0EE0FFF1FE15CF54FA59179
:10397000B491EC91E92321F461E08AE00E94A20570
:1039800061E08AE00E94D0058CB580618CBD8CB569
:1039900080648CBD61E08DE00E94D00561E08BE029
:1039A0000E94D0058091C2018F5F8093C2011FBF2A
:1039B000BECE61E080919F030E94D00561E08091BE
:1039C000A0030E94D00580919F03082E000C990B44
:1039D000FC01ED5AF54FE491F0E0EE0FFF1FE75BBD
:1039E000F54F259134913093A5032093A403FC0156
:1039F000E959F54FE491E093AC038091A003082EC0
:103A0000000C990BFC01ED5AF54FE491F0E0EE0F3C
:103A1000FF1FE75BF54FA591B491B093A703A09367
:103A2000A603FC01E959F54FE491E093AD038C91B5
:103A3000E095E823EC937BCE8091960390919703D9
:103A4000892B31F08091B9039091BA030E94C50F80
:103A5000E091AA03F091AB0390818091AF03809530
:103A600089238083A5CE8FECDCCE8036910569F466
:103A70008091810390918203409739F480919D0356
:103A8000813029F480E18093B80312E0CDCE8FEA33
:103A9000FACFE091AA03F091AB0380819091AF033C
:103AA000892B8083AFCC0F3F110511F461E001CD6C
:103AB000E4E8FAE08491833019F140F48130B1F008
:103AC0008230C9F0003811058CF7F2CC873011F143
:103AD000883041F18430B1F780918000806280931A
:103AE000800010938B0000938A00E6CC84B5806838
:103AF00084BDF7BCE1CC84B5806284BDF8BCDCCC6D
:103B000080918000806880938000109389000093EA
:103B10008800D2CC8091B00080688093B000F09291
:103B2000B300CACC8091B00080628093B000F09264
:103B3000B400C2CC333028F0822F837011F46F5F51
:103B40007F4FCD0103969695879596958795EDE6DF
:103B50008E2E99249394A89DF001A99DF00DB89DF7
:103B6000F00D112435968E0F9F1F860F971F67E06B
:103B700070E00E947824811101C087E08D835AE0B3
:103B8000842F652F0E946C24982F880F890F880F2F
:103B9000840F8E83832F0E946C24982F880F890FA7
:103BA000880F830F8F83822F0E946C24982F880F99
:103BB000890F880F820F888721E048E050E0B1012B
:103BC00080915202909153020E94A9151FE01AA7FA
:103BD00021E041E050E0BE01665D7F4F80915202DE
:103BE000909153020E94A91541E050E0BE01685D2A
:103BF0007F4F80915202909153020E94841488A5B5
:103C000018A78F7789A721E042E050E0BE01685DE8
:103C10007F4F80915202909153020E94A91518E0A3
:103C2000612E11E0712E05EF802E01E0902EF30140
:103C300021913F0130E0F901E558F54F8491F901F8
:103C4000E959F54F1491F901ED5AF54F049100230C
:103C500079F081110E947905E02FF0E0EE0FFF1F4F
:103C6000EB5CF54FA591B491EC911E2381E009F432
:103C700080E0F4019081913009F4F3C108F4ECC1C3
:103C8000923009F4FFC1933009F41CC2F1E18F0EA8
:103C9000911C0CE0601601E0700609F0C8CF80911D
:103CA000EC01811117C00E9458068B019C016093A2
:103CB000E4011093E5018093E6013093E70110924F
:103CC000E8011092E9011092EA011092EB0181E003
:103CD0008093EC018091DC01811107C08091C003C9
:103CE0008093DB0181E08093DC010E9458069B01F8
:103CF000AC0160E070E080E090E0A090E401B09062
:103D0000E501C090E601D090E701E090E801F09075
:103D1000E9010091EA011091EB010E941925A3E647
:103D20000E942B2509F008F4B6C00E9458068B01AA
:103D30009C016093E4011093E5018093E6013093C8
:103D4000E7011092E8011092E9011092EA01109245
:103D5000EB011982009152021091530220E041E0E0
:103D600050E0B101C8010E94A915882331F047E055
:103D700050E0B101C8010E94841429812F77822F5D
:103D800090E004E0959587950A95E1F7982F990FB3
:103D9000990F582F591B550F520F2A81822F90E0EF
:103DA00034E0959587953A95E1F7982F990F990FFB
:103DB000482F491B440F420F2B81822F90E064E073
:103DC000959587956A95E1F7982F990F990F382F58
:103DD000391B330F320F2D81822F90E074E09595BF
:103DE00087957A95E1F7982F990F990F682F691B9E
:103DF000660F620F7E817F77872F90E0E4E09595D4
:103E00008795EA95E1F7982F990F990F282F291B8D
:103E1000220F270F7F81872F90E0F4E095958795FB
:103E2000FA95E1F7982F990F990F891B880F870F43
:103E30008093BB032093BC036093BD033093BE0308
:103E40004093BF035093C0035093C9034093CA03E8
:103E50003093CB036093CC032093CD0390E0805349
:103E6000984F9093CF038093CE030E94D9150E9460
:103E70003D246093D0030E94D91520E030E048EC47
:103E800052E40E94DB220E943D24862F64E60E94B9
:103E90006C249093D1038091C0039091DB0189172A
:103EA000B1F08093DB010E9458068B019C01609366
:103EB000C1031093C2038093C3033093C4031092D1
:103EC000C5031092C6031092C7031092C8030E9444
:103ED00058069B01AC0160E070E080E090E0A090AB
:103EE000C103B090C203C090C303D090C403E0905C
:103EF000C503F090C6030091C7031091C8030E9448
:103F00001925F4EFAF2EBB24B394C12CD12CE12C96
:103F1000F12C00E010E00E94B02420952170209345
:103F2000D2030E9458069B01AC0160E070E080E083
:103F300090E0A090C103B090C203C090C303D090A2
:103F4000C403E090C503F090C6030091C70310912D
:103F5000C8030E941925AAEFAA2EB12CC12CD12C7E
:103F6000E12CF12C00E010E00E94B024209521709B
:103F70002093D3030E9458069B01AC0160E070E0DF
:103F800080E090E0A090C103B090C203C090C30352
:103F9000D090C403E090C503F090C6030091C7031E
:103FA0001091C8030E941925BDE7AB2EB12CC12C7E
:103FB000D12CE12CF12C00E010E00E94B0242095DF
:103FC00021702093D4030E9458069B01AC0160E04D
:103FD00070E080E090E0A090C103B090C203C09078
:103FE000C303D090C403E090C503F090C6030091D2
:103FF000C7031091C8030E94192514E6A12EB12C05
:10400000C12CD12CE12CF12C00E010E00E94B02456
:10401000209521702093D50380910101823009F40D
:1040200089C108F059C0882309F4ABC0813009F474
:10403000F8C061E070E080E090E00E94260680E039
:1040400090E0892B09F411CA0E94CE06882309F456
:104050000CCA0E94000009CAF1E08F27F401808396
:1040600015CEA2E0AA2EA0820E9458068B019C01C8
:10407000F40161831283838334831582168217824D
:10408000108604CE811193E0F40190830E945806BB
:104090009B01AC0160E070E080E090E0F401A18061
:1040A000B280C380D480E580F680078110850E94AD
:1040B00019252187328743875487658776878787C5
:1040C000908BE4CD10821186128613861486158695
:1040D00016861786108ADACD843009F4C9C108F42F
:1040E0007AC1853009F0A5CF0E9458064B015C01CA
:1040F00020916703309168034091690350916A03EE
:1041000060916B0370916C0380916D0390916E03CD
:104110002053384F4F4F5F4F6F4F7F4F8F4F9F4F01
:104120003901B42FA52FF62FE72F8C019401A5019B
:1041300060E070E080E090E05301CB2EDA2EEF2EAD
:10414000FE2E0E94222518F081E0809301010E943A
:104150002A1650928E0340928D0350928C03409207
:104160008B03109288031092870310928A03109297
:10417000890381E080938F03809390038FE691E021
:1041800025C180914102811117C00E9458068B0100
:104190009C016093390210933A0280933B02309362
:1041A0003C0210923D0210923E0210923F02109289
:1041B000400281E0809341020E9458064B015C015D
:1041C0002091390230913A0240913B0250913C02D9
:1041D00060913D0270913E0280913F0290914002B9
:1041E0002053384F4F4F5F4F6F4F7F4F8F4F9F4F31
:1041F0003901B42FA52FF62FE72F8C019401A501CB
:1042000060E070E080E090E05301CB2EDA2EEF2EDC
:10421000FE2E0E94222508F40CCF81E0809301013C
:1042200008CF81E090912802911101C080E01F9297
:104230008F9381E090911702911101C080E01F924D
:104240008F9381E090910602911101C080E01F924E
:104250008F9381E09091F501911101C080E01F9250
:104260008F938CE591E09F938F933F922F920E94C2
:104270006E260E942A1650928E0340928D03509211
:104280008C0340928B031092880310928703109244
:104290008A031092890381E080938F0380939003B7
:1042A000C1010E944A160E94D4120E9458069B0126
:1042B000AC0160E070E080E090E0A090C103B090BD
:1042C000C203C090C303D090C403E090C503F09034
:1042D000C6030091C7031091C8030E941925E4E6A4
:1042E000AE2EB12CC12CD12CE12CF12C00E010E031
:1042F0000E94AE240FB6F894DEBF0FBECDBFA0E083
:104300000E942B2509F495CE809100019091F40133
:10431000893011F0811104C021E0911120E0922F29
:104320009093F401992321F081508093000181CE74
:104330008F5FFBCF0E9458064B015C012091670301
:10434000309168034091690350916A0360916B0357
:1043500070916C0380916D0390916E0328513C4FD6
:104360004F4F5F4F6F4F7F4F8F4F9F4F3901B42F8C
:10437000A52FF62FE72F8C019401A50160E070E0D6
:1043800080E090E05301CB2EDA2EEF2EFE2E0E941D
:10439000222518F081E0809301010E942A16509294
:1043A0008E0340928D0350928C0340928B031092A7
:1043B00088031092870310928A031092890381E088
:1043C00080938F038093900385E691E00E944A16C4
:1043D0000E94D4122ECE0E9458064B015C012091FF
:1043E0006703309168034091690350916A036091BB
:1043F0006B0370916C0380916D0390916E03285153
:104400003C4F4F4F5F4F6F4F7F4F8F4F9F4F390143
:10441000B42FA52FF62FE72F8C019401A50160E0A2
:1044200070E080E090E05301CB2EDA2EEF2EFE2ECE
:104430000E94222518F081E0809301010E942A1633
:1044400050928E0340928D0350928C0340928B03C6
:10445000109288031092870310928A0310928903A6
:1044600081E080938F03809390038AE691E0AECF42
:104470000E9458064B015C0120916703309168034C
:104480004091690350916A0360916B0370916C03D2
:1044900080916D0390916E0328513C4F4F4F5F4FB9
:1044A0006F4F7F4F8F4F9F4F3901B42FA52FF62F9E
:1044B000E72F8C019401A50160E070E080E090E0BE
:1044C0005301CB2EDA2EEF2EFE2E0E94222518F05D
:1044D00081E0809301010E942A1650928E0340923F
:1044E0008D0350928C0340928B031092880310929C
:1044F000870310928A031092890381E080938F03CF
:104500008093900388E791E061CFF80181938F0158
:104510006BA47CA46E167F0609F071C89BC884E367
:1045200091E090937C0380937B0380919A03909118
:104530009B03009711F00C94D9250895E89409C0C5
:1045400097FB3EF490958095709561957F4F8F4FC6
:104550009F4F9923A9F0F92F96E9BB279395F695DC
:10456000879577956795B795F111F8CFFAF4BB0F5A
:1045700011F460FF1BC06F5F7F4F8F4F9F4F16C0BE
:10458000882311F096E911C0772321F09EE8872F48
:10459000762F05C0662371F096E8862F70E060E004
:1045A0002AF09A95660F771F881FDAF7880F96957D
:1045B000879597F908950E94EE220C945F230E943C
:1045C000512338F00E94582320F0952311F00C94C9
:1045D00048230C944E2311240C9493230E9470239F
:1045E00070F3959FC1F3950F50E0551F629FF00146
:1045F000729FBB27F00DB11D639FAA27F00DB11D5F
:10460000AA1F649F6627B00DA11D661F829F2227E7
:10461000B00DA11D621F739FB00DA11D621F839F6E
:10462000A00D611D221F749F3327A00D611D231F44
:10463000849F600D211D822F762F6A2F11249F5792
:1046400050409AF0F1F088234AF0EE0FFF1FBB1F95
:10465000661F771F881F91505040A9F79E3F510554
:1046600080F00C9448230C9493235F3FE4F3983E2E
:10467000D4F3869577956795B795F795E7959F5FFE
:10468000C1F7FE2B880F911D9695879597F9089590
:1046900097F99F6780E870E060E008959FEF80ECF5
:1046A000089500240A941616170618060906089598
:1046B00000240A9412161306140605060895092EFE
:1046C0000394000C11F4882352F0BB0F40F4BF2B6D
:1046D00011F460FF04C06F5F7F4F8F4F9F4F0895AD
:1046E00057FD9058440F551F59F05F3F71F04795A3
:1046F000880F97FB991F61F09F3F79F08795089588
:10470000121613061406551FF2CF4695F1DF08C0A6
:10471000161617061806991FF1CF869571056105C3
:1047200008940895E894BB2766277727CB0197F96B
:1047300008952F923F924F925F926F927F928F9245
:104740009F92AF92BF92CF92DF92EF92FF920F9320
:104750001F93CF93DF93CDB7DEB7CA1BDB0B0FB62A
:10476000F894DEBF0FBECDBF09942A8839884888E7
:104770005F846E847D848C849B84AA84B984C8847D
:10478000DF80EE80FD800C811B81AA81B981CE0F74
:10479000D11D0FB6F894DEBF0FBECDBFED01089559
:1047A0005058BB27AA270E94E8230C945F230E943D
:1047B000512338F00E94582320F039F49F3F19F418
:1047C00026F40C944E230EF4E095E7FB0C9448235A
:1047D000E92F0E94702358F3BA1762077307840702
:1047E000950720F079F4A6F50C9492230EF4E09549
:1047F0000B2EBA2FA02D0B01B90190010C01CA019B
:10480000A0011124FF27591B99F0593F50F4503E45
:1048100068F11A16F040A22F232F342F4427585F37
:10482000F3CF469537952795A795F0405395C9F74F
:104830007EF41F16BA0B620B730B840BBAF0915007
:10484000A1F0FF0FBB1F661F771F881FC2F70EC0A6
:10485000BA0F621F731F841F48F487957795679579
:10486000B795F7959E3F08F0B0CF9395880F08F065
:104870009927EE0F9795879508950E94782388F0E1
:104880009F5798F0B92F9927B751B0F0E1F0660F14
:10489000771F881F991F1AF0BA95C9F714C0B13055
:1048A00091F00E949223B1E008950C949223672F17
:1048B000782F8827B85F39F0B93FCCF38695779584
:1048C0006795B395D9F73EF490958095709561956D
:1048D0007F4F8F4F9F4F0895991B79E004C0991F18
:1048E000961708F0961B881F7A95C9F7809508954A
:1048F000AA1BBB1B51E107C0AA1FBB1FA617B70706
:1049000010F0A61BB70B881F991F5A95A9F7809521
:104910009095BC01CD010895A1E21A2EAA1BBB1BE4
:10492000FD010DC0AA1FBB1FEE1FFF1FA217B3077B
:10493000E407F50720F0A21BB30BE40BF50B661F91
:10494000771F881F991F1A9469F760957095809555
:1049500090959B01AC01BD01CF010895689401C001
:10496000E8948F929F92CF93DF930E94BC24DF91B3
:10497000CF919F908F90089588249924F401E401A9
:10498000B0E49F93AA279A158B049C04ED05FE05BD
:10499000CF05D007A10798F4AD2FDC2FCF2FFE2F26
:1049A000E92D982C892E982F872F762F652F542F3D
:1049B000432F322F2227B85031F7BF9127C01B2E2B
:1049C000BF91BB27220F331F441F551F661F771F40
:1049D000881F991F881C991CEE1FFF1FCC1FDD1F0D
:1049E000AA1FBB1F8A149B04EC05FD05CE05DF053D
:1049F000A007B10748F08A189B08EC09FD09CE0909
:104A0000DF09A00BB10B21601A94E1F62EF494019A
:104A1000AF01BE01CD01000C08950024A7FD009454
:104A20002A0F301D401D501D601D701D801D901DE2
:104A300008952A193B094C095D096E097F09800B0D
:104A4000910B08952A153B054C055D056E057F0504
:104A50008007910708950024A7FD00942A173005C8
:104A60004005500560057005800590050895EE0F1E
:104A7000FF1F0590F491E02D09940F931F93CF939E
:104A8000DF938230910510F482E090E0E091D8034A
:104A9000F091D90330E020E0B0E0A0E0309799F445
:104AA0002115310509F44AC0281B390B2430310582
:104AB000D8F58A819B816115710589F1FB0193838A
:104AC0008283FE0111C04081518102811381481708
:104AD0005907E0F04817590799F4109761F01296BA
:104AE0000C93129713961C933296CF01DF91CF91BE
:104AF0001F910F9108950093D8031093D903F4CF19
:104B00002115310551F04217530738F0A901DB0197
:104B10009A01BD01DF01F801C1CFEF01F9CF9093F8
:104B2000D9038093D803CDCFFE01E20FF31F819309
:104B300091932250310939832883D7CF2091D6030E
:104B40003091D703232B41F42091040130910501CA
:104B50003093D7032093D6032091020130910301B3
:104B60002115310541F42DB73EB740910601509112
:104B70000701241B350BE091D603F091D703E21710
:104B8000F307A0F42E1B3F0B2817390778F0AC0170
:104B90004E5F5F4F2417350748F04E0F5F1F50934D
:104BA000D7034093D603819391939FCFF0E0E0E049
:104BB0009CCFCF93DF930097E9F0FC0132971382EB
:104BC0001282A091D803B091D903ED0130E020E02A
:104BD0001097A1F420813181820F931F2091D60379
:104BE0003091D7032817390709F061C0F093D70334
:104BF000E093D603DF91CF910895EA01CE17DF0746
:104C0000E8F54A815B819E0141155105B1F7E90143
:104C1000FB83EA8349915991C40FD51FEC17FD0717
:104C200061F4808191810296840F951FE901998337
:104C30008883828193819B838A83F0E0E0E01296EF
:104C40008D919C9113970097B9F52D913C911197F7
:104C5000CD010296820F931F2091D6033091D70386
:104C60002817390739F6309751F51092D903109269
:104C7000D803B093D703A093D603BCCFD383C2830A
:104C800040815181840F951FC817D90761F44E5F89
:104C90005F4F88819981480F591F518340838A81D2
:104CA0009B81938382832115310509F0B0CFF09366
:104CB000D903E093D8039ECFFD01DC01C0CF13825E
:104CC0001282D7CF81E090E0F8940C940F29DC0198
:104CD00001C06D9341505040E0F70895AEE0B0E060
:104CE000E4E7F6E20C94A7230D891E8986E08C8305
:104CF0001A8309838FEF9FE79E838D83AE01475E02
:104D00005F4F6F89788DCE0101960E9491262F8189
:104D10003885020F131FF80110822E96E4E00C94E0
:104D2000C323ABE0B0E0E7E9F6E20C9499237C0101
:104D30003B018A01FC0117821682838181FFC8C171
:104D4000CE0101965C01F7019381F30193FD8591FA
:104D500093FF81913F01882309F453C1853239F4CF
:104D600093FD859193FF81913F01853229F4B7012D
:104D700090E00E948128E7CF912C212C312CFFE17B
:104D8000F31538F08B3211F190F4803209F183324F
:104D900029F137FC3CC020ED280F2A3050F536FEB3
:104DA00020C08AE0989E200D1124922E06C08D32DC
:104DB00091F0803371F7689430F8F30193FD859199
:104DC00093FF81913F018111DACF21C0689431F8BE
:104DD000689432F8F2CF689433F8EFCF689434F8DF
:104DE000ECCFEAE02E9E200D1124222E689435F897
:104DF000E4CF8E3229F436FC04C1689436F8DDCF56
:104E00008C3619F4689437F8D8CF8836B1F2982FD9
:104E10009F7D95549330E0F08336A1F18337C1F143
:104E2000833509F063C02801F2E04F0E511CF801F0
:104E3000C080D180692D70E036FC02C06FEF7FEF3B
:104E4000C6010E946B284C01689437F882010AC0A1
:104E50000C5F1F4FFFE3F98388248394912C650135
:104E6000E89437F833FE2DC0522C8114910471F56B
:104E7000552009F468CFB70180E290E00E948128B4
:104E80005A94F6CFF801808189830E5F1F4FE4CFDB
:104E90002801F2E04F0E511CF801C080D180692D2D
:104EA00070E036FC02C06FEF7FEFC6010E947628EB
:104EB0004C018201D5CFB70180E290E00E948128A9
:104EC0002A942814190409F0B0F7CECFF60137FC64
:104ED000859137FE81916F01B70190E00E94812892
:104EE00051105A94F1E08F1A9108BFCF843619F00F
:104EF000893609F077C0F80137FE6BC06081718197
:104F0000828193810C5F1F4FF32DFF763F2E97FF19
:104F100009C090958095709561957F4F8F4F9F4FF9
:104F2000689437F82AE030E0A5010E94B128C82E25
:104F3000CA188C2C432C36FE0CC0E89440F8C914D7
:104F400040F434FE05C032FC03C0F32DFE7E4F2E2C
:104F5000892C44FE95C0FE01EC0DF11D808180334B
:104F600009F087C0242D297E422E842D8870582E6A
:104F700043FC95C040FE8FC09C2C821418F42C0C6E
:104F8000922C981844FE91C0B70180E390E00E94F3
:104F9000812842FE09C088E790E041FE02C088E512
:104FA00090E0B7010E948128C91408F48AC0CA940D
:104FB000D12C9FEFC91AD90ACA0CDB1CF6018291C9
:104FC0006F01B70190E00E948128AC14BD04B1F7D5
:104FD0004FCF60817181072E000C880B990B0E5FFB
:104FE0001F4F92CFD32CE894D4F82AE030E08537D5
:104FF00039F1232D297FD22E8F3601F148F48835DF
:10500000A9F0F701868197812B96E2E10C94B523F4
:10501000803749F08837A9F7D4FE02C06894D2F8E7
:1050200020E130E00DC06894D4F8F6CF34FE03C020
:10503000822F8660D82E20E132E002C028E030E0E6
:10504000F801D7FE0FC060817181828193810C5F6E
:105050001F4FA5010E94B128C82ECA183D2CE89404
:1050600037F867CF6081718190E080E00E5F1F4F5D
:10507000F0CF42FC02C0839478CF8394839475CFA1
:10508000842D867809F471CFF6CFB70180E290E0E5
:105090000E94812883948214C0F3512C73CF522C28
:1050A0005818821408F46ECFF8CF842D867809F44E
:1050B0007BCF8BE241FE80E247FC8DE2B70190E0BE
:1050C00071CFB70180E390E00E9481289A946CCF61
:1050D0008FEF9FEF99CFFC01059061507040011058
:1050E000D8F7809590958E0F9F1F0895FC01615011
:1050F000704001900110D8F7809590958E0F9F1FFA
:1051000008950F931F93CF93DF93182F092FEB016F
:105110008B8181FD09C01FEF0FEF812F902FDF9151
:10512000CF911F910F91089582FF14C02E813F816E
:105130008C819D81281739073CF4E881F981CF01E2
:1051400001969983888310838E819F8101969F8326
:105150008E83E3CFE885F985812F0995892BA1F30B
:10516000DACFFA01AA27283051F1203181F1E894F1
:105170006F936E7F6E5F7F4F8F4F9F4FAF4FB1E04A
:105180003ED0B4E03CD0670F781F891F9A1FA11D45
:10519000680F791F8A1F911DA11D6A0F711D811D46
:1051A000911DA11D20D009F468943F912AE0269F0B
:1051B00011243019305D3193DEF6CF010895462F6A
:1051C0004770405D4193B3E00FD0C9F7F6CF462F4B
:1051D0004F70405D4A3318F0495D31FD40524193B4
:1051E00002D0A9F7EACFB4E0A69597958795779571
:1051F0006795BA95C9F700976105710508959B01F8
:10520000AC010A2E06945795479537952795BA9580
:10521000C9F7620F731F841F951FA01D089515E025
:10522000CBE4D5E004C0FE010E9437252196CC34A2
:08523000D107C9F7F894FFCF84
:1052380001010000DA0380000203040500000000F9
:105248000407640691065107C206A006B4060000CA
:1052580000008B115E118114780557114411351126
:1052680000000000090C64068114C30F18097805B2
:10527800AE0E860EA20E960E160F7805CF090514EF
:105288008808D108CF0DB20D3A0DDB0C25752575B0
:10529800257525750062746E310062746E32006285
:0E52A800746E3120616E642062746E330000FB
:00000001FF
